:020000041000EA
:1004000000A00208DB4901100D000000CD0301101F
:10041000D5030110DD030110E50301100000000009
:10042000000000000000000000000000A51E0110F8
:10043000394A0110000000003D1F01104D1F01103E
:10044000394A0110394A0110394A0110394A01105C
:10045000394A0110394A0110394A0110394A01104C
:10046000394A0110394A0110394A0110394A01103C
:10047000394A0110394A0110394A0110394A01102C
:10068000394A0110394A0110394A011010B5054C98
:10069000237833B9044B13B10448AFF3008001232E
:1006A000237010BDC01200080000000054C70210E3
:1006B00008B5034B1BB103490348AFF3008008BDE5
:1006C00000000000C412000854C70210154B002B94
:1006D00008BF134B9D46A3F5803A00218B460F4679
:1006E0001348144A121A20F091FC0F4B002B00D033
:1006F00098470E4B002B00D09847002000210400A3
:100700000D000D48002802D00C4810F089FD1FF0A4
:1007100085FF2000290011F0FDF911F00BF800BF52
:100720000000080000A0020800000000751A011077
:10073000C0120008A8540008211201100000000097
:10074000704708B50368984708BD08B5036898471F
:1007500008BD0B68036070477047000000B585B0A6
:10076000154801F06FFC80B1134801F06BFC80B1BB
:10077000114801F0D1FAC1B2104801F0A1FA0028E5
:10078000F2D00F4820F0A8FCEEE70E4820F04AFD1A
:10079000EAE70022019202920B4B00930B4B03936A
:1007A0006946054801F070FC039B13B19B686846DD
:1007B000984705B05DF804FBE012000898140008A3
:1007C000C8840210B0840210D1070010DC8402102B
:1007D00030B585B0002200920192029203926946E0
:1007E0000D4801F051FC039B13B19B686846984784
:1007F0000A4B1D680421284602F03FF8044648B120
:10080000074B0360074902F056F92246064928467D
:1008100002F0AAF805B030BDE0120008DC120008B2
:100820005D0700104107001043070010012800D0A9
:1008300070474FF6FF739942FAD110B502F010FAE3
:10084000094B1860094801F009FA094C4FF4165396
:100850004FF450220749204601F054FA064A07494E
:10086000204610F0DBFC10BDDC12000898140008D4
:10087000E012000801000D008C0200088108001041
:1008800010B50446024B036001F092FC204610BDF7
:100890001C8C021000B585B00022019202920A4B16
:1008A00000930A4B03936946094801F0EDFB039B53
:1008B00013B19B68684698470649054800F04CF913
:1008C000002005B05DF804FBD1070010DC840210A5
:1008D000E01200089814000810B50446054B0360A8
:1008E00001F066FC4FF4DC71204610F0A5FF2046B5
:1008F00010BD00BF1C8C021008B54FF6FF7101201F
:10090000FFF794FF08BD30B424230B7000240123AB
:10091000934204DC055DCD5401330134F8E74022F5
:10092000CA5401332322CA5430BC7047F8B5074675
:100930000E461446104601F096FB80B10A4D2B6816
:100940005A1C2A60F95C204601F0F5F92B689E429A
:1009500001D00020F8BD00222A600120FAE70348F8
:1009600020F060FC0020F5E734180008E88402104D
:1009700008B51B4901F082F978BB1A4B1B78012B93
:1009800011D0022B1CD023B1174820F04BFC0020C3
:1009900024E0134B1B78242B01D000201EE0114BC8
:1009A00001221A701AE00E4B1B782A2B03D000206C
:1009B0000C4B187012E00B4B02221A7000200DE055
:1009C000074B1B78252B03D00020064B187005E041
:1009D000044B00221A70012000E0002008BD00BF77
:1009E0003018000831180008F884021038B50546A0
:1009F0000C462649104601F041F9002843D1244B0A
:100A00001B78032B3AD8DFE803F0020D1F2C1F4B95
:100A10001B78242B01D0002036E01D4B01221A70D8
:100A2000002031E01B490A68531C0B601749097804
:100A3000A954A34201D0002026E00020154B1860E5
:100A4000134B02221A701FE0104B1B78402B03D06F
:100A500000200F4B187017E00D4B03221A70002076
:100A600012E00A4B1B78232B03D00020084B187090
:100A70000AE0074B00221A70012005E0064820F02A
:100A8000D1FB002000E0002038BD00BF9816000810
:100A9000991600089C160008F884021030B583B03F
:100AA00005460C4B1B68ADF804301B0C8DF8063066
:100AB000002407E002AB234413F8041C284601F08D
:100AC0003AF90134022CF5DD034820F005FB03B0B0
:100AD00030BD00BF208502100C850210F0B5FDB0BE
:100AE00007460E4677AC124D0FCD0FC42B6823700E
:100AF000402575954124769477A9684600F0B8FEA4
:100B0000684600F0DDFE684600F018FF01468C22C2
:100B100054A820F075F92A4639460DF29110FFF7D6
:100B2000F2FE2246314654A8FFF7EDFE7DB0F0BD3F
:100B30002485021038B50C46154601F011F8202224
:100B400029462046FFF7DFFE38BD08B501F038F82A
:100B5000012800D0002008BD2DE9F047ADF5567DF5
:100B600006460D464023D4934123D593BF4B1B78B3
:100B7000BFF35B8F13F0010F1ED003F0CBFD0028F5
:100B80002CD17BACBA4F0FCF0FC43B68236001233D
:100B900014227BA950A800F0DBFB00248DF827412C
:100BA00091A9A2A8FFF79AFF88AAB249B248FFF715
:100BB000C1FF2746A04621E2AC4810F041FB0028C7
:100BC000DBD0AD4C204600F0BFFFA84810F066FB1C
:100BD000AA4AAB49204610F021FBCEE7A94820F0F5
:100BE00021FBCEE732464321A2A8FFF79FFE002853
:100BF00000F00482A44820F06FFA0124FEE12846A8
:100C0000FFF7B6FE002800F0F981A04820F00AFBAB
:100C10009F4820F007FB0224F0E13246442191A8CE
:100C2000FFF784FE002800F0E9819A4820F054FA8A
:100C30000324E3E12846FFF79BFE002800F0DE8155
:100C4000954820F0EFFA0424D8E12846FFF790FEFB
:100C5000002800F0D381914820F0E4FA0524CDE18A
:100C60002A46D4990DF20D30FFF7C0FE002800F09F
:100C7000C5818B4820F030FA00243F2C07DCD6AB2E
:100C8000234413F84B0C20F075FA0134F5E70A20E1
:100C900020F070FA3046FFF701FF0624AEE12A4645
:100CA000D599B3A8FFF7A2FE002800F0A7817D48E0
:100CB00020F012FA0024402C07DCD6AB234413F8B2
:100CC0008C0C20F057FA0134F5E70A2020F052FA94
:100CD0003046FFF7E3FE072490E1B3A901A800F036
:100CE0006DFE01A800F098FE002800F087816E4894
:100CF00020F0F2F93046FFF7D1FE08247EE13246BB
:100D0000232188A8FFF712FE002800F077816748AA
:100D100020F088FA092471E12846FFF729FE00280F
:100D200000F06C81624820F07DFA0A2466E12A46D0
:100D3000202180A8FFF75AFE002800F05F815D485F
:100D400020F0CAF900241F2C0BDC0DF5007A1AF8EC
:100D5000040020F00FFA1AF80420574B1A550134FA
:100D6000F1E70A2020F006FA3046FFF797FE0B2441
:100D700044E1524A50494048FFF7E7FE002800F09E
:100D80003D814F4820F0A8F94FF0000ABAF10F0F4B
:100D900008DC4A4B13F80A104A4820F09DF90AF182
:100DA000010AF3E70A2020F0E5F9444950A800F0D1
:100DB0008DFA002800F0228150A800F0E5FA0E28F4
:100DC00004D0414820F02EFA0C2417E13F4820F0CF
:100DD00029FA50A800F048FB03468DF82701033399
:100DE0005FFA83F8404610F013FD814650A800F0EA
:100DF00037FB044650A800F037FB02464946204620
:100E0000FFF781FD50A800F02DFB10224BA9FFF742
:100E10007AFD01224AA90DF22710FFF774FD0D2477
:100E2000ECE0324613214BA8FFF780FD002800F0CC
:100E3000E580274820F0F6F90E24DFE02846FFF78A
:100E400097FD002800F0DA80224820F0EBF90F240B
:100E5000D4E0324604214AA8FFF768FD002800F0DC
:100E6000CD801D4820F0DEF91024C7E0941600085C
:100E7000948A0210E0170008A01600088C020008EF
:100E8000B11A0010388502105885021080850210B2
:100E9000BC850210F88502102086021060860210C0
:100EA00088860210B0860210D886021000870210D1
:100EB0002C87021070870210101800080018000814
:100EC000AC870210E487021014880210E887021031
:100ED0002888021048880210808802102846FFF7F0
:100EE00047FD002800F08A806A4820F09BF9112411
:100EF00084E0324641464846FFF718FD00287DD081
:100F0000654820F08FF9122478E02846FFF730FD7D
:100F1000002873D0614820F085F917246EE0284638
:100F2000FFF726FD002869D05D4820F07BF91324E7
:100F300064E02A46102145A8FFF758FD00285DD03F
:100F4000584820F0C9F800240F2C05DC45AB185D8B
:100F500020F010F90134F7E70A2020F00BF93046B1
:100F6000FFF79CFD142449E02A4601210DF21310DD
:100F7000FFF73CFD002841D04B4820F0ADF89DF82C
:100F8000130120F0F7F80A2020F0F4F83046FFF7BC
:100F900085FD9DF8130110F03BFC074615242DE05C
:100FA0002A469DF813113846FFF720FD30B33F481D
:100FB00020F092F8002403E0385D20F0DBF80134E3
:100FC0009DF81331A342F7DC0A2020F0D3F8304615
:100FD000FFF764FD162411E003F09CFB002849D1C3
:100FE000334820F01FF9334B45AA9DF813113846BA
:100FF00000F025FC3046FFF751FD18244FF47A70BD
:1010000010F029FC182CF9D801A353F824F000BFE4
:10101000E50B0010FF0B00101B0C0010350C00102E
:101020004B0C0010610C00109F0C0010DB0C00102A
:10103000FF0C0010190D00102F0D0010730D001083
:10104000FD0F0010230E00103D0E0010530E001077
:10105000DD0E0010F30E00100B0F0010330F001008
:10106000690F0010A10F0010D90F00101F0F001002
:101070007D100010104820F0D5F8B1E70F4B1B7819
:10108000002BBBD00E4820F027F80C4B00221A7022
:10109000B4E700BFAC880210E88802100C89021087
:1010A0004489021078890210A8890210E089021090
:1010B000148A0210001800083885021090020008F7
:1010C000548A021010B50446094B40F8603B03F007
:1010D000A7F8B4F85C0002F078FF0023A4F85C30B5
:1010E000A06808B110F0B3FB03F0F8FA204610BD79
:1010F000748B021010B50446FFF7E4FFAC212046C4
:1011000010F09AFB204610BD012800D070474FF622
:10111000FF739942FAD110B582B0094C4FF41653BF
:10112000009300234FF4A0220649204600F05CFE05
:10113000054A0649204610F071F802B010BD00BF04
:1011400038180008010005008C0200085111001039
:1011500010B504460A4B036003F12002C0F8B82121
:101160008C33C0F8BC3100F5E87010F04BFC04F58E
:10117000DC700EF047FF204601F01AF8204610BD43
:10118000348C021038B50546A0F5DE74094B236097
:1011900003F1200240F8042C8C33C4F8BC31143025
:1011A00010F030FC281F0EF02DFF204601F000F853
:1011B000204638BD348C021038B50546A0F5DC74E5
:1011C000094B236003F12002C4F8B8218C3343603B
:1011D000183010F017FC28460EF014FF204600F0DF
:1011E000E7FF204638BD00BF348C02101023037483
:1011F0000920704790F8313003F0FF021BB1012A3B
:1012000005D004207047044B43630A207047034B0A
:1012100043630A20704700BF0001600401016004BD
:1012200090F8313063B9838913F00F0F03D0002396
:10123000C3810120704783899BB2C3810C20704712
:1012400090F83130DBB2012B01D004207047838944
:10125000027C12FA83F39BB2828902F00F029B1A7E
:101260009BB2C3810C20704770B504460D464FF405
:1012700080734364436B836400F13806436DB3B1FC
:1012800000231A464FF41051304602F0B9FE802375
:10129000638704F15C0310222946304602F0E8FE21
:1012A00048B90B24304602F0A0FE204670BD4FF432
:1012B00010530387EBE7034903480EF0D3FE0224E3
:1012C000F0E700BFA88A0210F019000808B5FFF780
:1012D000CBFF0B2801D0002008BD0120FCE7000057
:1012E00010B50446FFF782FF84F8320000230F2B6D
:1012F00006DC164AD15CE21882F821100133F6E7C9
:10130000092800D010BD2046FFF774FF84F8320092
:101310000A28F7D12046FFF783FF84F832000C2813
:10132000F0D12422002104F138001FF06FFE4C227E
:10133000002104F160001FF069FE04F12101204644
:10134000FFF792FF84F83200DCE700BF5C8B0210ED
:1013500038B504460B4D05604160828180F831301C
:10136000FFF7BEFF94F832300B2B01D0204638BD7A
:10137000E08980B210F04CFAA0600D2384F832307E
:10138000F4E700BF748B021030B585B0044690F8C6
:1013900032300D2B0AD02C492C480EF063FE00236E
:1013A00084F8323094F8320005B030BD00F16005A9
:1013B000426BB0F85C10284602F0F0FF18BB03AB9C
:1013C000102204F11101284603F014F818BBA28979
:1013D000E3899BB202A901910093A36892B261686C
:1013E000284603F033F8F0B9A0680299E28992B276
:1013F00002AB521A0144284603F056F8D8B90E231E
:1014000084F83230CEE7124910480EF02BFE052347
:1014100084F83230D3E70F490C480EF023FE062340
:1014200084F83230D3E70C4908480EF01BFE07233E
:1014300084F83230D8E7094904480EF013FE082337
:1014400084F83230AEE700BF448B0210F019000878
:10145000C08A0210E48A0210FC8A0210208B02105B
:101460008068704711307047C089C0B27047000073
:1014700010B504460D4B036003F12002C0F8B821FB
:101480008C33C0F8BC3100F5E87010F0BBFA04F5FD
:10149000DC700EF0B7FD204600F08AFE4FF4FA71C2
:1014A000204610F0C9F9204610BD00BF348C021050
:1014B00038B50546A0F5DE740C4B236003F120021D
:1014C00040F8042C8C33C4F8BC31143010F09AFA74
:1014D000281F0EF097FD204600F06AFE4FF4FA71C7
:1014E000204610F0A9F9204638BD00BF348C021008
:1014F00038B50546A0F5DC740B4B236003F12002E0
:10150000C4F8B8218C334360183010F07BFA2846B9
:101510000EF078FD204600F04BFE4FF4FA712046A5
:1015200010F08AF9204638BD348C021008B54FF609
:10153000FF710120FFF7E8FD08BD000010B504466B
:101540000B4B40F8643B02F06BFEB4F8600002F015
:101550003CFD0023A4F86030206B08B110F077F94F
:10156000606808B110F073F903F0B8F8204610BDB8
:10157000C88B021010B50446FFF7E0FFB0212046EB
:1015800010F05AF9204610BD012800D070474FF6E0
:10159000FF739942FAD110B582B0094C4FF416533B
:1015A000009300234FF4A0220649204600F01CFCC3
:1015B000054A064920460FF031FE02B010BD00BFBB
:1015C0002C1A0008010005008C02000851110010BF
:1015D00090F8343003F0FF021BB1012A05D004203B
:1015E0007047044B83630A207047034B83630A20D0
:1015F000704700BF00016004010160041023837381
:101600000920704790F8343043B9838913F00F0FE5
:1016100010D183899BB283600C20704790F83430DE
:10162000DBB2012B01D00420704783899BB2836019
:101630000C2070470C20704770B504460D464FF4DF
:1016400000738364836BC36400F13C06836DB3B1A4
:1016500000231A464FF41051304602F0D1FC80238B
:10166000E38704F1600310222946304602F000FDB2
:1016700048B90B24304602F0B8FC204670BD4FF448
:1016800010538387EBE702481FF0CCFD0224F1E7FB
:101690007C8B021008B5FFF7CFFF0B2801D000208C
:1016A00008BD0120FCE7000010B50446FFF7A6FFC7
:1016B00084F8350000230F2B05DC154AD15CE218B5
:1016C000D1770133F7E7092800D010BD2046FFF796
:1016D0007FFF84F835000A28F7D12046FFF792FFF4
:1016E00084F835000C28F0D12422002104F13C00BC
:1016F0001FF08CFC4C22002104F164001FF086FCDA
:1017000004F11F012046FFF797FF84F83500DCE75E
:10171000B08B021070B504460E461546114A0260A1
:101720009DF8102080F834208381FFF7BDFF94F8E6
:1017300035300B2B01D0204670BDA08980B210F04F
:1017400067F8666000230F2B04DCE85CE118C873BF
:101750000133F8E7A06810F05BF820630D2384F8EC
:101760003530E8E7C88B021030B585B0044690F8F4
:1017700035300D2B06D0002380F8353094F8350035
:1017800005B030BD00F16405826BB0F860102846EA
:1017900002F009FE10B1052384F83530102204F15F
:1017A0000F01284602F004FE10B1062384F83530FC
:1017B000A28903AB0193A3680093236B92B2616883
:1017C000284602F043FE10B1072384F83530206B21
:1017D0000399A26803AB521A0144284602F064FE42
:1017E00018B1082384F83530C8E70E2384F8353063
:1017F000C4E7000038B505460A490B480EF032FC34
:101800000024AB689C4207D22B6B195D06480EF092
:1018100013FC0134E4B2F4E7044903480EF022FC5F
:1018200038BD00BF948B0210E41B0008AC8B021083
:1018300008B54FF6FF710120FFF7A6FE08BD10B5F1
:10184000AEB01C46002300930B46014602A8FFF7EA
:1018500061FF214602A8FFF71DFF02A8FFF784FFE2
:1018600002A8FFF7C7FF02A8FFF768FE2EB010BD61
:1018700038B5044601600025C0F8B0504023C0F8D8
:1018800048314123C0F84C3102F044FF242229465C
:1018900004F148001FF0BAFB122384F8BE3047F26F
:1018A0001213A4F8BC30054BC4F8B83003F17063D0
:1018B00003F5E023C4F8B430204638BD0900000128
:1018C00030B585B004464FF480634365D0F8B4303A
:1018D000836500F14805B0F8BC10436E33B30023B4
:1018E0001A46284602F08CFB4FF48073A4F84A3065
:1018F00004F1C001284602F0C1FE234653F8042B30
:1019000004F1440102914021019100930423D4F891
:10191000B410B4F8C00002F0E5FB00233F2B08DC54
:10192000E218117982F805110133F7E7A0F84810A1
:10193000DAE7636CC4F8483105B030BD10B5044631
:1019400000F1B003412200F16C01B0F8C00002F0D8
:1019500078FB0023402B06DCE21892F86C1082F82A
:10196000C4100133F6E7D4F8B030C4F84C3104F1B8
:10197000C40010BD012800D070474FF6FF73994294
:10198000FAD110B582B0094C4FF4165300930023DE
:101990004FF4A0220649204600F026FA054A0649DF
:1019A00020460FF03BFC02B010BD00BF201C000819
:1019B000010005008C0200085111001010B504460A
:1019C0008C2280301FF01CFA114B636000233F2BE8
:1019D00005DCE21892F8C11011720133F7E7D4F870
:1019E0000431A3642422002104F14C001FF00EFBFB
:1019F000084B636703F1706303F5E0232367122349
:101A000084F87A3044F21213A4F87830204610BDDE
:101A1000248502100900000130B583B004464FF45C
:101A200000638365036FC36500F14C05B0F878105F
:101A3000836E33B300231A46284602F0E1FA4FF4CE
:101A40008073A4F84E3004F17C03D4F8082104F12B
:101A50008001284602F00CFB04F10803A26C0192FD
:101A6000009304236268216FB4F87C0002F09AFBB3
:101A7000206048B1074908480EF0F4FA002003B08E
:101A800030BDA0F84C10DAE7044903480EF0EAFA3A
:101A90000120F4E7D08B0210D81D0008E48B02105F
:101AA00008B54FF6FF710120FFF764FF08BD000085
:101AB00010B50446054B40F8083B06F073F9D4F81E
:101AC0003C0106F016F8204610BD00BF0C8C021039
:101AD00010B50446FFF7ECFF4FF4A07120460FF05D
:101AE000ABFE204610BD000010B5ADF5A46D044658
:101AF00001230371AC200FF077FEC4F83C01104BBA
:101B000093E8030002908DF80C1004F1080006F031
:101B100035F9D4F83C0105F0E2FF04A806F09AFB81
:101B20000523009302AB04AA0649D4F83C0105F052
:101B3000F1FF08B10023237120790DF5A46D10BDCC
:101B4000FC8B02109182001010B50446034B036019
:101B5000FFF7CAFF2071204610BD00BF0C8C021099
:101B600070B582B004460379012B04D005230371BC
:101B7000207902B070BD0D4600F1080609213046FB
:101B80000DF08AF808B102232371D4F83C31009398
:101B90000A4B04F1900204F18401304606F0D8F8B3
:101BA00008B1032323712022294604F1900003F099
:101BB0001DFD0028DCD004232371D9E75B7C0010D5
:101BC00070B582B004460E4615460121CC3003F0B4
:101BD000E4FB08B1062323712022314604F1B4004E
:101BE00003F09FFC08B107232371D4F83C31019323
:101BF000194B009304F1840304F1B40204F1D801F9
:101C000004F1080006F0AEF808B1082323710021A2
:101C10000B461BE0D4F8E02052F82120120E581C8D
:101C2000EA54D4F8E02052F82120120C9E1C2A54C9
:101C3000D4F8E02052F82100000ADA1CA855D4F8A4
:101C4000E00050F82100A854043301310F2BE1DDEE
:101C5000207902B070BD00BF5B7C00100023A0F8AB
:101C6000F831A0F8F431A0F8F631B3F5FA7F03DAD1
:101C70000022C2540133F8E770470000B0F8F83191
:101C8000CBB1B0F8F4315A1CA0F8F421C35C0B704E
:101C9000B0F8F421094BA3FB02135B094FF4FA716E
:101CA00001FB1323A0F8F431B0F8F831013BA0F8A0
:101CB000F831002070470420704700BFD34D6210F8
:101CC000B0F8F821B2F5FA7F15D230B4B0F8F65179
:101CD0006B1C9CB24155094BA3FB04135B094FF4E9
:101CE000FA7101FB1343A0F8F6310132A0F8F82194
:101CF000002030BC70470420704700BFD34D6210F5
:101D00007047704710B5044600F0F8F8014B2360A7
:101D1000204610BD1C8C021038B5044603681B68B1
:101D20009847204600F08FFA054623685B682046F6
:101D30009847284638BD38B504460D4603681B68E9
:101D400098472946204600F083FA054623685B68D9
:101D500020469847284638BD6FF01500704708B5F3
:101D600003681B69984708BD08B503689B699847D5
:101D700008BD08B503689B6A984708BD09B10020F3
:101D800070476FF018007047012070476FF0150022
:101D900070476FF01500704711207047704708B505
:101DA00000F051FA08BDA0F5DC70FFF7F8BF08B5E8
:101DB00000F04EFA08BDA0F5DC70FFF7F8BF08B5DB
:101DC00000F5E8700FF0E0FD08BDA0F5DC70FFF74E
:101DD000F6BF08B500F5E8700FF0F6FD08BDA0F5F8
:101DE000DC70FFF7F6BF000038B504461D46049BC3
:101DF00000F084F8294604F5DC700EF0D5F8084BA5
:101E000003F10802226003F12802C4F8B8219433D8
:101E1000C4F8BC3104F5E8700FF0AEFD204638BDC3
:101E20002C8C02107047704730B583B043688468CB
:101E30000169C06802AA02E9030063B1009A62B1B5
:101E400001994D1003EB610011F0010F01D05B59B6
:101E50009A582146904703B030BD019911F0010F07
:101E6000F9D0EDE770B5044600F14C05D0F89021AB
:101E7000D0F88C11284612F0DFFFD4F89861DEB15B
:101E8000D4F89C315A1004EB630013F0010F01D019
:101E9000A3589E59D4F8A831D4F8A42194F8A011DD
:101EA000B047D4F88411284613F01CF8224605499F
:101EB000284613F02FF870BDD4F89C3113F0010FB1
:101EC000EFD0DDE7C91E001008B500EB0113D3F811
:101ED00070313BB1163100EB01100430C36813B10F
:101EE0001B68984708BD40F23B22024902480EF0A9
:101EF000CFFB00BFC88C0210EC8C02102DE9F04320
:101F000089B004468846174699464B4B03604B4BB5
:101F1000436000258560069507956B4608AA12E97F
:101F2000030083E803002461656104F1180282E87C
:101F30000300434BE360256284F8245084F8255065
:101F4000A562E56225636563A563E5632564656451
:101F500084F8485084F849504FF48C72294604F1B3
:101F60004C001FF053F804F5B2700126002E07DB79
:101F70000025056045608560C5601030013EF5E7CD
:101F8000C4F88491012384F8883184F88931C4F835
:101F90008C81C4F890710025C4F89451C4F898510C
:101FA000C4F89C5184F8A0514FF0FF33C4F8A43119
:101FB000C4F8A831C4F8AC51C4F8B051C4F8B45155
:101FC00007E0059BF360059B13B19B6802A8984747
:101FD0000135012D1ED805F1160704EB07173E1D2C
:101FE00002AB002202920392049205929E42EAD032
:101FF000F36813B19B683046984700237B60736099
:10200000B360F360059B002BDBD05B6802A9304610
:102010009847D6E7A3685A1004EB630013F0010F4A
:1020200007D0A2586368D3589847204609B0BDE846
:10203000F0836368F8E700BFFC8C0210651E001097
:10204000291E001038B50446054655F84C3B1B6860
:102050009847284612F0BEFF054623685B68204675
:102060009847284638BD38B50446054655F84C3BD8
:102070001B689847284612F0B4FF054623685B6842
:1020800020469847284638BD2DE9F04184B00446E3
:102090000F46154603681B68984794F8883103B1CA
:1020A000EDB194F889310BB1012D18D0163504EB40
:1020B00005152E1DBE423ED0F36813B19B68304615
:1020C000984700236B607360B360F360FB681BB1DB
:1020D0005B68394630469847FB68F3602BE00EF0AA
:1020E000FFFBFB688BB304EB0513D3F870314BB3E4
:1020F00005F1160804EB081808F10406BE4212D0D8
:10210000F36813B19B68304698470023C8F8043041
:102110007360B360F360FB681BB15B68394630469F
:102120009847FB68F3600122294604F14C0012F045
:10213000F6FE0EF0EDFB23685B682046984704B07E
:10214000BDE8F0810EF010FED2E704EB0513D3F8E2
:1021500070310BB10EF024FE05F1160704EB0717E2
:102160003E1D6B46002200925A609A60DA609E42E1
:1021700011D0F36813B19B683046984700237B6009
:102180007360B360F360039B1BB15B6869463046C4
:102190009847039BF360039B13B19B68684698477D
:1021A0000022294604F14C0012F0B9FEC1E70000FC
:1021B00070B584B004461D4B0360002500E0013576
:1021C000012D10DC00230093019302930393EAB2E4
:1021D00069462046FFF758FF039B002BEFD09B6812
:1021E00068469847EBE714F5B2760BD004F5C27554
:1021F000AE4207D0103DEB68002BF9D09B68284613
:102200009847F5E704F13800636C0BB19B68984779
:1022100004F12800636B0BB19B689847206A08B1F2
:102220000DF016FC204604B070BD00BFFC8C0210FF
:1022300010B50446FFF7BCFF4FF4DC7120460FF0E9
:10224000FBFA204610BD08B54C3012F097FE08BDD1
:1022500010B50C464C3012F0A9FE204610BD00000F
:1022600038B504468268C568016A436A521845EB6E
:10227000030300F05FF9636B2BB104F12800C3681E
:1022800013B11B68984738BD40F23B220149024810
:102290000EF0FEF9C88C0210EC8C021010B504464A
:1022A00000F01AF9074B236000220023C4E9082339
:1022B0000023A362E36223636363012384F838305D
:1022C000204610BD148D021030B585B004460EF0C6
:1022D00007FB204600F039F9636B13B194F83830EE
:1022E00023BB04F128056B46002200925A609A60D5
:1022F000DA609D4211D0EB6813B19B68284698477D
:102300000023A3626B60AB60EB60039B1BB15B6857
:10231000694628469847039BEB60039B13B19B6873
:10232000684698470EF0F4FA05B030BD0EF038FD5F
:10233000D7E7000038B504460546074B45F8283B6B
:10234000FFF7C2FF636B13B19B682846984720468E
:1023500000F002F9204638BD148D021038B504464D
:102360000546094B45F8283BFFF7AEFF636B13B1F9
:102370009B6828469847204600F0EEF8402120460A
:102380000FF05AFA204638BD148D021070B504467D
:1023900015461E460EF0A4FA204600F0D6F8256237
:1023A0006662A0690DF014FB421941EB060320465A
:1023B00000F0C0F80EF0ACFA70BD2DE9F041044613
:1023C0000E4690461F460EF08BFA636BF3B104F194
:1023D0002805B54211D0EB6813B19B682846984791
:1023E0000023A3626B60AB60EB60F3681BB15B68BA
:1023F000314628469847F368EB6042463B46204604
:10240000FFF7C4FF0EF084FABDE8F08194F838308D
:10241000002BDCD00EF0A8FCD9E7000030B585B069
:10242000044600F1280500230093019302930393CF
:10243000EB681BB15B68294668469847EB680393D5
:102440002046FFF741FF039B4BB11B686846984746
:10245000039B13B19B686846984705B030BD40F2B6
:102460003B22024902480EF013F900BFC88C02104B
:10247000EC8C021038B504460546094B45F8283B5C
:10248000FFF722FF636B13B19B68284698472046ED
:1024900000F062F8402120460FF0CEF9204638BD0A
:1024A000148D021038B504460546074B45F8283B05
:1024B000FFF70AFF636B13B19B68284698472046D5
:1024C00000F04AF8204638BD148D021008B50368A4
:1024D0009B68984708BD000010B50446084B036090
:1024E00000220023C0E902230023036143610DF0B1
:1024F00099FAA06103490DF0DBF9204610BD00BF39
:102500003C8D0210CD24001010B504460846074B40
:10251000236000220023C4E90223002323616361B6
:10252000A16103490DF0C4F9204610BD3C8D021095
:10253000CD24001000B583B0009000F1080180693F
:102540000DF0F8F903B05DF804FB08B500F10801DF
:1025500080690DF023FA08BD10B50446024B0360F4
:10256000FFF7F3FF204610BD3C8D021008B503684D
:102570001B6901220021984708BD08B503681B6943
:1025800000221146984708BD10B50346816842688D
:1025900001EB620012F0010F05D054100A591B68BC
:1025A000D358984710BD1B68FBE7034607C983E86B
:1025B00007007047704708B54FF0FF3100F043F84F
:1025C00008BD000070B48BB004460E46694681E831
:1025D0000C0003AA03C982E8090005AD85E80900DB
:1025E00007AA82E80900099607CA84E80700034B96
:1025F000E36020460BB070BC704700BF488D0210EE
:102600007047704710B504460023C36403654365F3
:10261000836521B142B100F0B5F8204610BD00221B
:10262000114600F0AFF8F8E700F0E9F8F5E710B56B
:10263000044600F0F6F8A36D1BB104F14C009B6852
:102640009847204610BD08B500F0ADF908BD0B79DC
:1026500002699340C068081A18437047F8B50646E7
:1026600001F1270525F0030500F14807384600F081
:1026700040FA06F118031C6894B12268AA4202D2FB
:1026800004F10803F7E7E2683AB11A60A3689360BF
:10269000384600F032FA2046F8BDA2681A60F7E723
:1026A000F369AB420BD3346A621932625B1BF3618C
:1026B000256001232371384600F01FFAEBE7384606
:1026C00000F01BFAE7E770B504460D4600F1480636
:1026D000304600F00EFA04F11800036833B11C68AC
:1026E0002A68944202D203F10800F6E71BB1196888
:1026F0002A68914208D00023EB600368AB60056054
:10270000304600F0FAF970BDEB609B68AB60F6E70D
:10271000F0B583B006460D4600F14407384600F098
:10272000E8F9737A0133737273685B1B002B03DD66
:102730003368019301AC03E07560F9E703F1080425
:1027400023681BB15A69521B002AF7DD336003B1BD
:102750001E6100232360384600F0CFF9019901A8DB
:1027600003E0026001F10800214641B18C680B468C
:102770000022002BF5D09A601A46DB68F9E7019831
:1027800003B0F0BD38B50446032911D9D31C23F09A
:102790000303C3609A1A891A21F0030100236361BD
:1027A00023610A4632B12369013323615208F9E7F4
:1027B000C260F3E70025A561E161E368236225605B
:1027C00000F07CF900F07EF960606572257284F893
:1027D0002450A562E56204F1300000F093F900286E
:1027E0000CDB04F1440000F081F9002806DB04F161
:1027F000480000F07BF9002800DB284638BD70B5A2
:1028000005460C4608461DF0AFFF38B106460246A5
:1028100021462846FFF7B6FF6E6170BD4FF0FF30CE
:10282000FBE770B5064605680EE0E46834B1E3697D
:10283000002BFAD004F124009847F6E7EB6913B1B6
:1028400005F124009847AD680DB1EC68EEE7B36A76
:102850001BB14FF0FF31F06A984706F1480000F0D5
:1028600047F906F1440000F043F906F1300000F0AA
:1028700051F970691DF080FF70BD08B5FFF7EEFEDD
:10288000034630B1002242614FF0FF318161C261E5
:102890002433184608BD38B50446A1F1240551F883
:1028A000083C0BB108469847E36823B1AB4202D815
:1028B000236A9D4200D938BD29462046FFF703FF11
:1028C000F9E72DE9F84307460E4690464B699B1AF7
:1028D000002BACBFD318131C4B61437A4B7100F132
:1028E0004409484600F005F93D462B683BB15C6958
:1028F0007269A41A002C02DA03F10805F5E71BB18E
:1029000059697269914215D0B36013B106F108029A
:102910001A610023F3602E603561BB6A2BB197F812
:10292000242012B13A68B24213D0484600F0E5F8CC
:10293000BDE8F8839B68B36013B106F108021A6121
:102940002B68F36000229A60334653F80C2F136112
:10295000E1E7F268002AE8D17169A1EB080121EAF8
:10296000E171F86A9847E0E7F8B505460E46144667
:10297000A2F1240700F0A6F8024644F8046C54F8CB
:10298000103C034444F8103C39462846FFF799FFB1
:1029900039462846FFF75BFE044605F1300000F09B
:1029A000BDF82046F8BD2DE9F84305460F4600F076
:1029B00089F8014607EB0008002385F8243051E030
:1029C00062691344636100F07DF80246214628469F
:1029D000FFF777FF04E004F124012846FFF75BFFCF
:1029E000344694B1A668236A13B104F124009847D1
:1029F000A369002BE4DA23790133DBB223712A695E
:102A00009340E8D101232371E5E700F05BF8044629
:102A1000002F47DBA8EB0009B9F1000F27DD05F116
:102A20004406304600F065F82B6833B15869041B42
:102A300024EAE4744C4500D2A146304600F05DF82B
:102A4000494605F1300000F06EF82B7A3BB1304674
:102A500000F04FF82B7A43BB304600F04EF800F000
:102A600031F801462846FFF753FE0446B9E7AB6A42
:102A7000A3B105F14406304600F03BF8AB6A3BB128
:102A80002A682AB15169091B21EAE171E86A98476D
:102A9000012385F82430304600F02FF800232B72F4
:102AA000BDE8F8834FF0FF39B9E700232B723046B9
:102AB00000F023F8F4E740F8081C704708B50EF062
:102AC000C1F808BD08B50DF001FF48B1064B186804
:102AD0000DF031FB4FF47A72002325F061FB08BD45
:102AE0000EF008FFFBE700BFA0360008002070478B
:102AF000704708B50DF0F4FE08BD08B50DF008FFED
:102B000008BD000008B502490EF0CEFE002008BD49
:102B1000548D021008B50EF0D2FE08BD08B5012193
:102B20000EF0C8FE08BD08B50A1E08DB01231946D1
:102B30000EF0D6FE012814BF0020012008BD4FF082
:102B4000FF32F3E730B589B00446384B1B78BFF34A
:102B50005B8F13F0010F26D0354B1B78BFF35B8FD3
:102B600013F0010F34D0334811F03CFC08B11028A9
:102B700016D1314B06930023079308AB13E90C00E1
:102B80002E4902A8FFF71EFD02A92A4811F066FB94
:102B90000446059B13B19B6802A89847002C3FD1BF
:102BA000264809B030BD21480EF04AFB0028D3D09A
:102BB000224D234A4FF440712846FFF723FD1B485E
:102BC0000EF06CFB1F4A204928460EF027FBC3E796
:102BD00017480EF035FB0028C5D0164D2B461B4A72
:102BE00043F8042B0021696059609960D96005F1B0
:102BF00040000EF02BFF05F154000EF0BDFE0094D6
:102C0000134B4FF400621821284611F01BFB0848B3
:102C10000EF044FB0B4A0F4928460EF0FFFAA2E7DC
:102C20002E220D490D480DF033FD00BFD8260008B7
:102C3000141E0008181E0008B7250010DC26000826
:102C4000382700088C0200082F260010D8B3021085
:102C5000D81E0008914301105C8D02108C8D02106B
:102C600008B50248FFF76EFF08BD00BF9C8D02103B
:102C700000F4E040B0F5805F06D0B0F5005F01D011
:102C800000207047012070470120704710F17F0F2E
:102C900003DA404200F4FF404042002800F3FB8189
:102CA00010F17A0FC0F2828000F17A037A2B00F2E1
:102CB000E180DFE813F0AB01DF00DF00DF00DF00C1
:102CC000DF00DF00DF000502DF00DE01DF00ED01D5
:102CD000DF009001DF008D01DF008A01DF008A0143
:102CE000DF008A01DF008A01DF008A01DF00DF00E8
:102CF000DF00DF00DF00DF00DF00DF00DF00A80112
:102D0000DF00A501DF00DF00A201DF00DF00DF0040
:102D1000DF00DF00DF00DF00DF00DF00DF00DF00BB
:102D2000DF00DF00DF00DF00DF00B701DF00DF00D2
:102D3000B701B701DF00B101E4010502E4010502BA
:102D4000E401AE01B4010502E101DF00C301DF00CF
:102D5000C301DF00C301DF00EA01E70196010502BC
:102D60008401050205020502DF000502DF00DF0025
:102D7000DF00DF00DF00DF008701050293010502AD
:102D8000DF00BD01C001BA019F01DB019C01D80138
:102D90009901D501DF00D201DF00CF01DF00CC01B6
:102DA000DF00C901DF00C601DF007C0210F58B4F98
:102DB00000F074811CDD10F57E5F00F0B48140F3FB
:102DC0008D8010F5705F00F0CC8140F3C08010F56D
:102DD000665F00F0D88140F3DB8010F5645F00F09F
:102DE000E18110F5625F40F0E0816FF09200704782
:102DF00010F5A44F00F0558114DD10F59D4F00F043
:102E0000718145DD10F5994F00F07E815BDD10F595
:102E1000984F00F0828110F5974F40F081816FF05C
:102E20009200704710F5C44F00F03E810BDD10F5A5
:102E3000C14F00F04B8120DD10F5A54F40F04F81D0
:102E40006FF09200704710F5C64F00F0308106DD3C
:102E500010F5C54F40F037816FF08800704710F5CE
:102E6000C84F00F0278110F5C74F40F026816FF062
:102E7000960070476FF08300704710F5C34F00F065
:102E8000288110F5C24F40F027816FF0860070470F
:102E900010F5A14F00F029810ADD10F59F4F00F0D9
:102EA0002D8110F59E4F40F02C816FF08900704706
:102EB00010F5A34F00F01C8110F5A24F40F01B81CC
:102EC0006FF08600704710F59C4F00F0208110F5E0
:102ED0009B4F40F01F816FF08C00704710F5854FBD
:102EE00000F024810BDD10F5824F00F02E8123DDF0
:102EF00010F5814F40F032816FF08600704710F579
:102F0000884F00F0168105DD10F5874F0DD16FF069
:102F10009400704710F58A4F00F00E8110F5894F2C
:102F200040F00D816FF08C00704710F5864F40F037
:102F300009816FF09600704710F5844F00F008810A
:102F400010F5834F40F007816FF09200704710F545
:102F5000765F00F009810ADD10F5745F00F00D81E5
:102F600010F5725F40F00C816FF08500704710F52E
:102F70007A5F00F0FC8010F5785F02D16FF091006D
:102F8000704710F57C5F40F0F5806FF08600704769
:102F900010F56C5F00F0FA800ADD10F56A5F00F052
:102FA000FB8010F5685F40F0FA806FF08500704795
:102FB00010F56E5F40F0ED806FF0840070476FF0A9
:102FC000920070476FF0920070476FF08600704774
:102FD0006FF08C0070476FF0890070476FF09200BF
:102FE00070476FF0920070476FF0860070476FF087
:102FF000940070476FF0920070476FF08600704742
:103000006FF0880070476FF0940070476FF0920087
:1030100070476FF0930070476FF0930070476FF048
:10302000920070476FF0930070476FF09400704704
:103030006FF0860070476FF0920070476FF092005B
:1030400070476FF0910070476FF0860070476FF027
:10305000860070476FF0890070476FF086007047F8
:103060006FF0860070476FF0860070476FF08C003D
:1030700070476FF0920070476FF0920070476FF0EA
:10308000920070476FF0860070476FF092007047B3
:103090006FF0960070476FF0830070476FF09200FA
:1030A00070476FF0910070476FF0950070476FF0B8
:1030B000940070476FF0920070476FF08300704784
:1030C0006FF0850070476FF0830070476FF08500E8
:1030D00070476FF08C0070476FF0830070476FF09F
:1030E000830070476FF0850070476FF08500704770
:1030F0006FF08C0070476FF0830070476FF08600B0
:1031000070476FF0830070476FF0860070476FF074
:10311000940070476FF0830070476FF09400704721
:103120006FF0830070476FF08C0070476FF096006F
:1031300070476FF0890070476FF0850070476FF03F
:10314000830070476FF0830070476FF09500704701
:103150006FF0860070476FF0830070476FF0830058
:1031600070476FF0840070476FF0860070476FF013
:10317000860070476FF0830070476FF086007047DD
:103180006FF0830070476FF0850070476FF0860026
:1031900070476FF0830070476FF0850070476FF0E5
:1031A000830070476FF0940070476FF083007047A2
:1031B00081423ED021F0FF03204A934211D0A2F574
:1031C000803293420DD021F4803323F0FF0302F5C7
:1031D0000032934205D002F50032934201D0002024
:1031E000704720F0FF03154A934211D0A2F58032B8
:1031F00093420DD020F4803323F0FF0302F5003218
:10320000934205D002F50032934201D0002070476E
:1032100010F0FF030FD043F08073094A934201D0AE
:1032200000207047484030F0FF030CBF0120002011
:103230007047012070470020704700BF0000031056
:10324000FF00000138B504460D464068FFF7B0FFA7
:1032500030B92946A068FFF7ABFF10B1012000E0AC
:10326000012038BD036823F4F85323F003030BB99E
:10327000002070476FF08600704700207047000004
:1032800000F17F400838032809D8DFE800F0020A7F
:1032900004060548704705487047054870470020F8
:1032A00070470448704700BFA8920210B8920210FD
:1032B000C0920210B092021010B5144642F20403FC
:1032C000984227D019D8B0F5885F02D0B0F5905F4A
:1032D0000CD111F0070F2BD10731C9086160012013
:1032E0001CF0F4F92060D8B1002010BD41F20103B8
:1032F0009842EED06FF08500F7E7B0F5105F14D17B
:103300008029E6D0C029E4D0B1F5807FE1D06FF00C
:103310008600EAE7B1F5807FDBD06FF08600E4E756
:10332000002363606FF08C00DFE76FF08500DCE75F
:103330006FF08600D9E738B5044605882846FFF7C0
:1033400097FC18B1206AC00080B238BD25F4405205
:1033500044F201039A4206D005F44F45B5F5824F79
:1033600006D00020F0E7E06907F09BFDC000EBE726
:10337000E369986DE8E710B586B0044603A801F04C
:1033800055FF002201920092134603A9204607F040
:10339000C9FCFFF77BFC044628B103A801F04CFFF1
:1033A000204606B010BD03A802F06AF810F0070F1F
:1033B000F3D06FF08504F0E72DE9F04186B00446C4
:1033C0000F4690461E4604A805F098FE04F4E0441B
:1033D000B4F5E04F0BD04246394604A806F0FAFC9B
:1033E000FFF754FC04466CB19CB9356014E000232F
:1033F00000934246394604A806F0E0FBFFF746FC7E
:103400000446F0E704A805F0BDFE012808D06FF0DF
:10341000860404A805F076FE204606B0BDE8F081DB
:1034200002AB06AA12E9030083E80300039D2846C5
:1034300007F037FDC000B0F5805F04D82846FFF7DD
:103440009AFF0446D0E76FF08504E2E770B505887F
:103450001DB304462846FFF70BFC064688B925F441
:10346000405244F201039A4210D005F44F45B5F59D
:10347000824F15D1E0690AF031F9E0691DF07CF95D
:103480000CE0E0691DF078F9002607E0E06908F03B
:1034900033FDE0691DF070F900E00026304670BD94
:1034A0006FF09606FAE72DE9F04182B00C4615461A
:1034B0001E46002301930B6001A901F087F98046A5
:1034C00090B9019F3B8803F4E043B3F5804F0FD0E0
:1034D000FB6835EA03030ED12EB1314607F10C002B
:1034E000FFF7B0FE50B12760404602B0BDE8F08162
:1034F00025F00105ECE76FF08408F5E76FF084082C
:10350000F2E700B583B00A440192024601A806F032
:10351000B7FD03B05DF804FB2DE9F04782B0044627
:103520000E4615461F46DDF828A000233B60BAF181
:10353000000F04D0038813F4804F00F0A780002D03
:1035400000F0A780B4F800804046FFF791FB814669
:10355000A8B1226AAA4200F29F80E16930461DF0BC
:103560004FFC206A2A1A002130441DF04FFD236AC7
:103570003B604FF00009484602B0BDE8F08728F0F4
:10358000FF03B3F5E24F30D028F4405344F2010278
:10359000934205D008F44F48B8F5824F40F082803E
:1035A00044F2010293423FD0684605F0A7FD3F4B2D
:1035B0000093E3690193BAF1000F05D1238803F466
:1035C000E043B3F5804F37D12A4631466846FFF7CE
:1035D00098FF0446002C36DBA046B5EB440F3CD2E6
:1035E000AC4247D3C7F80080C5E7BAF1000FCBD192
:1035F000638807334FEAE308B5EBE30F4FD3E06985
:10360000424631467C3001F0F1FFFFF73FFB814637
:103610000028B0D1A5EB0802002106EB08001DF040
:10362000F5FCC7F80080A6E7684605F067FD204B6B
:103630000093E3690193BEE72A463146684606F0E7
:1036400049FD0446C6E72A46002130461DF0DEFC4F
:103650002046FFF71BFB81468DE72D1B3544224694
:10366000294630461DF0CCFB2246002128461DF09D
:10367000CDFCB7E72D1B2246711930461DF05AFCD0
:103680002A46002130191DF0C1FCABE76FF0860916
:1036900071E76FF089096EE76FF089096BE76FF0EA
:1036A000890968E76FF0850965E700BF549E02103D
:1036B000B49E021010B50446406880B904F10C00B5
:1036C000FFF7D0FD034640B962884FF6F8739A427F
:1036D0000ED8238B33F001030DD1184610BD012302
:1036E0000A46A16801F0E8F803460028E6D0F4E7AE
:1036F0006FF08503F1E76FF08603EEE7F8B50C464F
:1037000016461D46069900230B602046FFF7D2FFA0
:10371000074608B13846F8BD2946304601F0A0F802
:1037200007460028F6D12E6835460FCC0FC594E821
:10373000070085E80700338B23F001033383E9E7B3
:1037400070B588B005460C460B8813B102889342C9
:103750003BD1236AF3B12B8823F4405344F2010296
:10376000934235D102AE304601F060FD05A801F06C
:103770005DFD0196002100910B460A46E86907F0BD
:10378000D1FA064668B102A801F056FD05A801F07D
:1037900053FDB6B96388F3B16A8893421ED1002005
:1037A0001AE0226AE16905A801F0BBFE064600287E
:1037B000E9D105A902A802F09CF80028E3D0094E3F
:1037C000E1E73046FFF762FA06E06FF0860003E0BB
:1037D0006FF0860000E0002008B070BD6FF086003A
:1037E000FAE700BF80BFFFFF10B501F0FE43B3F161
:1037F000806F0ED10160037903F0FA0343F00203F6
:103800000371002444718471083003F0EFFC2046FA
:1038100010BD4C2200211DF0F9FB6FF08600F7E788
:1038200038B50D46114600F0FE44B4F1C06F0CD01F
:1038300000F0FE44B4F1806F0AD0B4F1C06F07D03D
:10384000394A90426DD1012219E020F47C50EFE713
:10385000364A90423AD024D8354A904238D007D9D7
:10386000344A904238D0344A904218D1052206E0BA
:10387000324A90422ED0013290420ED1022242F2C0
:103880000130854240D02DD9B5F5105F47D042F2C6
:103890000340854236D105202DE000202FE0002096
:1038A0002DE0274A904219D004D9264A90420BD1E4
:1038B0000622E4E7244A904212D0244A904201D1E1
:1038C0000A22DCE700201AE0002018E00322D6E7F5
:1038D0000722D4E70222D2E70722D0E70822CEE768
:1038E0000422CCE742F20200854216D042F20400E4
:1038F000854205D1092003B1187003F061FC38BD81
:103900000020FCE70020FAE7402904D004208029A9
:10391000F1D1C021EFE70320F9E70720EBE7022010
:10392000E9E70020EBE700BF0200C0020200C0048C
:1039300001008004050080040100C004000160044F
:1039400001004006020040060300C0040500000616
:103950002DE9F04104460F46164620F0FF05204BA6
:103960009D4210D0A3F580339D420CD020F48033CB
:1039700023F0FF031B4A934205D002F50032934225
:1039800001D0002004E014F0FF0001D040F080706E
:10399000FFF776FC804605F08AFA3070124B9D42A4
:1039A00005D00F4B9D420FD00020BDE8F0819C4216
:1039B000F7D0B8F1000F0CD0404605F073FAB842CA
:1039C000EFD06FF08600F0E7B8F1000F04D00020D0
:1039D000EBE76FF08500E8E76FF08500E5E700BFF3
:1039E000000003100000041000000210F0B587B0C2
:1039F00006460C4617461D460DF11702194620468D
:103A0000FFF7A6FF08B107B0F0BD304607F049FA4E
:103A10000D9B984239D824F0FF041F4B9C421AD0CA
:103A20001E4B9C4234D19DF817200121304607F0EF
:103A300025FA0C9B03930297019500230093012321
:103A4000174A1849304607F053FF0446BCB12046D8
:103A5000FFF71CF9D7E700221146304607F00EFAAF
:103A60000C9B0393029701959DF817300093012357
:103A70000B4A0C49304608F093F80446E6E7304616
:103A800007F00FFA0E9B1860E1E76FF08900BAE7C4
:103A90006FF08600B7E700BF0000021000000310BF
:103AA000502F00085B7C00102DE9F0438DB00546D7
:103AB000894616461F46846D0734E40809A801F0BC
:103AC000B5FB06A801F0B2FB4FEA4408159BB3EB27
:103AD000440F52D319F4803F3ED029F0FF032F4A00
:103AE000934211D0A2F5803293420DD029F4803355
:103AF00023F0FF0302F50032934205D002F50032B5
:103B0000934201D0002004E019F0FF0001D040F002
:103B10008070FFF7B5FB05F0CAF9214B0493214BE8
:103B2000039302900197009605F17C0306AA09A968
:103B3000284604F000FA054600BB2246149909A85D
:103B400001F054FD0546C8B92246149B191906A870
:103B500001F04CFD054611E0114B0393114B02930C
:103B60000197009605F17C0306AA09A9284609F0E9
:103B700041F805460028E0D000E00B4D09A801F00F
:103B80005BFB06A801F058FB15B9169BC3F8008033
:103B90002846FFF77BF80DB0BDE8F0830000031066
:103BA000502F00085B7C001000B1FFFFF0B587B01C
:103BB00006460C4617461D460DF1170219462046CB
:103BC000FFF7C6FE034610B1184607B0F0BD3046F9
:103BD00007F067F90D9B984232D124F0FF041D4B8A
:103BE0009C421AD01C4B9C422DD19DF817200121DC
:103BF000304607F043F90C9B03930297019500238D
:103C00000093164A1649304608F0D6F810F5824F50
:103C10001CD0FFF73BF80346D6E70022114630469A
:103C200007F02CF90C9B0393029701959DF8173030
:103C300000930023094A0A49304608F03BF9E5E7BA
:103C40006FF09403C0E76FF08603BDE76FF0940355
:103C5000BAE700BF0000021000000310502F000858
:103C60005B7C00102DE9F04389B005460F46904675
:103C70001E46846D0734E40805A801F0D7FA02A8AF
:103C800001F0D4FA109BB3EB440F27D12246314602
:103C900005A801F046FC814658B105A801F0CCFA10
:103CA00002A801F0C9FA4846FEF7F0FF09B0BDE8E6
:103CB000F0832246311902A801F033FC8146002826
:103CC000EBD102AB019305AB009305F188034246AB
:103CD0003946284609F042F88146DEE76FF0940045
:103CE000E4E730283AD00DD8122815D0172807D18C
:103CF0001C294DD020294DD0182939D000207047DB
:103D000000207047412805D120293DD038293DD1D8
:103D10000D20704700207047302917D8182929D363
:103D20001839182910D8DFE801F00D0F0F0F270FF1
:103D30000F0F150F0F0F0F0F0F0F0F0F0F0F0F0F8D
:103D40000F0F17000120704700207047422915D13E
:103D500005207047032070470420704730290FD09A
:103D600040290FD0202901D000207047062070473D
:103D70000A207047002070470220704700207047DB
:103D800007207047082070470920704700207047BF
:103D90000B2070470C207047F8B506460C461746B6
:103DA0001D46AC2101201BF091FC286090B109F068
:103DB00047FC1FB114F0010F0FD0640821463046B4
:103DC000FFF78FFF014658B128680AF065FFFEF73C
:103DD0005DFFF8BD6FF08C00FBE76FF08600F8E741
:103DE0006FF08600F5E70000F0B585B00D4614468B
:103DF0001F460022039203AB2146FFF7CDFF064684
:103E000048B1039820B109F069FC03981CF0B4FC98
:103E1000304605B0F0BD2246294603987C3001F0BB
:103E200080FBFEF733FF06460028EAD1039800F135
:103E30007C0109F049FEFEF729FF06460028E0D183
:103E400003980A4B01930A4B009300F1280300F1F9
:103E50007C0200F1880109F0CBFFFEF717FF064650
:103E60000028CED1039B3B60D2E700BF502F000853
:103E70005B7C0010F0B583B00F4614461E4600224E
:103E8000019201AB01222146FFF786FF054648B1AA
:103E9000019820B109F022FC01981CF06DFC284625
:103EA00003B0F0BD019823463A4600F1880109F0BD
:103EB00073FDFEF7EBFE05460028E9D1019800F1FD
:103EC000880109F0DFFDFEF7E1FE05460028DFD19D
:103ED000019B3360E3E7F8B504460F4615460688B4
:103EE0003046FEF7C5FEC8B1E900B5F1005F51D21A
:103EF0004FF6F873994250D804F11C023046FFF790
:103F0000DBF9064610B91DB9002E3ED03046F8BD8B
:103F10002A463946E0691CF073FFF5E726F0FF03F7
:103F2000B3F5E24F11D0B3F5824F1ED026F44052C4
:103F300044F201039A4233D104F11C032A46394664
:103F40003046FFF739FA0646DEE706F44F43B3F58D
:103F5000824F08D0002004F11C032A463946FFF79F
:103F600043FF0646D0E7F0B2F5E706F44F43B3F55A
:103F7000824F08D0002004F11C032A463946FFF77F
:103F800079FF0646C0E7F0B2F5E72046FFF7D3F920
:103F90006080BBE76FF08506B8E76FF08506B5E790
:103FA0006FF08506B2E738B50546FFF74FFA0446CD
:103FB0002422002128461DF029F8204638BD18B1DA
:103FC00008B5FFF7F0FF08BD704708B9002070473B
:103FD00000B583B001A900F0F9FB10B103B05DF8A2
:103FE00004FB0198FFF7DFFFF8E710B50446C0694E
:103FF0001CF0C2FB2422002120461DF007F810BD52
:104000002DE9F041044688461E465BB90027E06969
:1040100008B11CF0B1FBE7612662A4F80080002023
:10402000BDE8F0811546194601201BF04FFB0746FD
:1040300020B1324629461CF0E3FEE8E76FF08C0021
:10404000EEE770B584B00E4615461C4600221A6095
:10405000134603A9FFF727FA08B104B070BD012386
:10406000009323462A4631460398FFF755FAF4E7B2
:104070002DE9F04184B01C460023039302936AB3F8
:1040800006460F46904602AB009303AB224601461C
:104090000020FFF733FB054620B1C5B9284604B020
:1040A000BDE8F081424639460398FFF714FF054604
:1040B0000028F2D131460398FFF742FB054600285D
:1040C000EBD102990398FFF7D8F80546E5E7029986
:1040D0000398FFF774FF00232380DFE76FF0860566
:1040E000DCE700002DE9F04387B00F9D109F3D6095
:1040F000002D52D00C46904699460B464FF48062F4
:1041000005A9FFF7D0F90646E8B9059A138803F424
:10411000E041B1F5E04F35D147F201018B4207D0C4
:1041200003F44F43B3F5824F16D06FF085062BE0B2
:10413000D069029701950E9B00934B46424621465B
:10414000FFF754FC0646FEB938682A1A21210E9B57
:1041500018441CF05BFF1CE024F4803323F0FF03C1
:104160000F498B4202D06FF086060DE0D0690297AE
:1041700001950E9B00934B4642462146FFF794FC67
:104180000646E0E76FF086062A4621210E981CF0CD
:104190003DFF304607B0BDE8F0836FF08906F8E7D1
:1041A0000000061070B584B00C4615461E460B463E
:1041B0004FF4006203A9FFF776F9D8B9039B1A8878
:1041C00022F4405044F20101884215D002F44F42DB
:1041D000B2F5824F1BD124F4803424F0FF040F4A3F
:1041E000944217D1D869099B0093089B324629460F
:1041F000FFF738FD04B070BDD869099B0193089B97
:10420000009333462A462146FFF7D0FCF2E76FF0D1
:104210008500EFE76FF08600ECE700BF00000610B6
:104220000368A3B110B5044603F0FE43B3F1806FF9
:104230000FD1083002F0E0FF002020602379607188
:10424000A07103F0FA0360F34103237110BD002055
:1042500070476FF08800F9E72DE9F04782B0044617
:10426000884615461E46012B0FD04FF4007923686F
:10427000002B40F08C8029462046FFF7B5FA074610
:1042800030B1384602B0BDE8F0874FF48079EEE7F0
:104290002B464A4601A94046FFF705F9804660B122
:1042A000B8F1000F71D13846FEF7F0FC0746002F39
:1042B000E7D02046FFF7B4FFE3E70199B1F8029099
:1042C00000234A4609882846FFF7AAFA0146002833
:1042D00058D004F1080A504603F0C4F907460028F4
:1042E000DED133464A460199C969504602F09CFF27
:1042F00007460028D4D1274B9D4221D001339D424F
:1043000026D0237943F00103237105F0FF43B3F175
:10431000906F29D0019B1B8803F4E042B2F5005F47
:104320001CD00023A37115F4800F25D0019B1B889E
:1043300003F4E042B2F5005F18D000236371AFE7E9
:104340000421504603F06AF90746002FD9D0A7E7A9
:104350000021504603F062F90746F6E7C3F3022254
:1043600001239340DBB2DDE70123DBE7C3F3022245
:1043700001239340DBB2E1E7074B9D4290D10C2330
:1043800063718DE76FF0850791E747468FE76FF020
:10439000880776E7000160040500800408B5012362
:1043A000FFF75AFF08BD08B50023FFF755FF08BD0A
:1043B00038B5037903F00603022B17D1044643797D
:1043C000934206D06FF086052046FFF729FF284666
:1043D00038BD083002F050FFFEF758FC05460028B3
:1043E000F2D1237943F004032371F0E76FF08805DD
:1043F000EDE7000070B50446007900F006000228E1
:104400001FD10D461E466179914206D96FF089058C
:104410002046FFF705FF284670BD0A4629460A4890
:1044200003F01BFC28B1FEF731FC0546002DF2D04D
:10443000EEE76279326029462046FFF7B9FF05466C
:10444000F4E76FF08805E6E7502F000830B583B039
:104450000446006820B300F0FF40B0F1906F11D027
:10446000E06A1044A579B0FBF5F000FB05F0069D6D
:10447000A84209D96FF089052046FFF7D1FE2846EA
:1044800003B030BD1046F2E70798009004F1080031
:1044900002F024FFFEF7FAFB05460028EFD0EBE719
:1044A0006FF08805EBE70000F0B585B01D46037995
:1044B00013F0010F3ED004460E46174603F00603E4
:1044C000022B3AD090F91030012B03D102681C4B1B
:1044D0009A420DD02A46694604F1080003F01AF802
:1044E00060B92A68EAB1BA4217D96FF0890608E0C4
:1044F000C36A002BEED06FF0860602E0FEF7C6FB23
:10450000064600232B601021684605F03BFF20463D
:10451000FFF786FE304605B0F0BD694630461CF018
:104520006FFC1021684605F02DFF2046FFF778FE4E
:104530000646EFE76FF08806ECE76FF08806E9E7DC
:104540000001600438B505460C46114B93F8C4359C
:1045500013F0010F19D0B4F5806F0ED94FF48062BB
:1045600029460C4803F079FB20B905F58065A4F5D0
:104570008064F0E7FEF78AFB06E0224629460548FC
:1045800003F06BFBFEF782FB38BD6FF08800FBE7A2
:10459000382A0008502F0008F8B505460E461F4679
:1045A0000488002A33D02046FEF762FB002833D16E
:1045B00024F0FF03B3F5E24F4AD104F44F43B3F5BF
:1045C000824F38D00020F11DC908FFF78AFB04464E
:1045D00008F0F2FF002F3ED1002C3FD0002840D041
:1045E0008388B34240D1AC2101201BF06FF806460E
:1045F00000283CD009F024F81E4B1F4A31462046C3
:1046000009F02AFC0446C0B9EE612046F8BD002B33
:10461000C9D06FF08604F8E705F11C023146204648
:10462000FEF74AFE04460028EFD1296AE869FFF741
:1046300089FF0446E9E7E0B2C5E7304609F04EF8E5
:1046400030461CF099F82046FEF720FB0446DCE7D4
:104650006FF08504D9E76FF08504D6E76FF0850425
:10466000D3E76FF08504D0E76FF08604CDE76FF0F5
:104670008C04CAE7502F00085B7C001070B584B032
:10468000002303930293438823B305460E4602ABEF
:10469000009303AB0A4601460120FFF72FF80446BA
:1046A00048B124B902990398FEF7E7FD044654B9CE
:1046B000204604B070BD2B6AEA6969880398FFF749
:1046C0006BFF0446EDE702990398FFF778FC00239F
:1046D0003380EDE76FF08604EAE7000010B500F0E4
:1046E000A5F80B4B93F8C43513F0060F05D14FF422
:1046F000B961074805F046FE10BD054C04F5A360FE
:1047000003F0F7F9636804F108009847EFE700BF8A
:10471000382A000870B584B0274B0393274B93F8D1
:10472000C43513F0010F45D1244B1B6823B3234B31
:104730005B682BB3214D2C4654F8083B2046984724
:1047400005F5A366304603F0CAF995F8C435012291
:1047500062F3420385F8C4350323009303AB22467A
:104760001749304603F0D6F9FEF790FA044658B1DF
:10477000ECB9204604B070BD104B124A1A60D6E75F
:104780000E4B114A5A60D5E795F8C425022161F312
:10479000420285F8C42500F03DF804460028E7D120
:1047A00095F8C43543F0010385F8C435E0E7FFF719
:1047B00095FFDEE70024DCE750534100382A00086B
:1047C0009182001055820010FF810010104B93F869
:1047D000803413F0010F11D0431E9BB21F2B10D851
:1047E00001380B4A00EBC00302EB830300EBC0006F
:1047F00032F8202042B10B60002070476FF0880033
:1048000070476FF0870070476FF08700704700BFF8
:1048100000300008044A92F8803443F0010382F823
:1048200080340020704700BF0030000810B501241C
:10483000202C0AD8631E03EBC3039A0007481044D8
:10484000FFF7B1FB0134A4B2F2E7044B93F88024E4
:104850006FF3000283F8802410BD00BF0030000811
:10486000144B93F8803413F0010F1AD020230380E7
:104870000388DBB110B4013B0E4A03EBC30302EB28
:1048800083040C6032F8233073B10388013B03804A
:104890000388002BEFD10B606FF08C005DF8044BA8
:1048A00070476FF0880070470020F7E70B606FF0EB
:1048B0008C0070470030000813460AB100221A60CD
:1048C000012802D16FF0850070476FF086007047B5
:1048D00070B40368CD1A002D4BDD1C7893F900608D
:1048E000002E0BDB5C1C04601B78136013680268ED
:1048F000891A8B424FD8002070BC704704F07F04A7
:10490000013C032C38D8DFE804F0020A1523012DFE
:1049100035DD5B781360036802330360E6E7022D40
:1049200030DD5C789B7843EA04231360036803332B
:104930000360DBE7032D28DD5D789C78240244EAE0
:104940000544DB7823431360036804330360CDE739
:10495000042D1DDD5D789C78240444EA0564DD782F
:1049600044EA05241B79234313600368053303607D
:10497000BCE76FF05F00BFE76FF06300BCE76FF06C
:104980005F00B9E76FF05F00B6E76FF05F00B3E775
:104990006FF05F00B0E76FF05F00ADE738B5046817
:1049A0000D1B002D07DD25789D4207D101340460E1
:1049B000FFF78EFF38BD6FF05F00FBE76FF061001F
:1049C000F8E730B583B004461D46134601AAFFF749
:1049D000E5FF0146002831D1019B002B31D023682F
:1049E00093F90030002B07DA6FF0630126E0013203
:1049F0002260019A013A0192019B1BB12268107852
:104A00000028F4D0042B1FD802D000232B6010E024
:104A1000236893F90030002BF7DA6FF063010DE0A3
:104A20002A6823681B7843EA02232B60226801323C
:104A30002260019B5A1E0192002BF1D1084603B05F
:104A400030BD6FF06301F9E76FF06301F6E708B579
:104A500013460222FFF7B5FF08BD30B583B0044608
:104A60001546022301AAFFF799FF08B103B030BD34
:104A7000019A2168284600F054FD2368019A1344E6
:104A80002360F3E738B5054614460323FFF786FF96
:104A900040B923683BB1013B23602B681A782AB9DF
:104AA00001332B6038BD6FF06700FBE76FF06700E4
:104AB000F8E72DE9F04182B004460D4617469846C6
:104AC000302301AAFFF76AFF064670BB2368E91A84
:104AD000002933DD1B783A4642F8043B2568019BE8
:104AE0001D44062329462046FFF758FF0646E0B935
:104AF0002368BB6079685A182260AA4219D05B5CAF
:104B0000424642F8043B236801332360294620468D
:104B1000FFF7DEFE064640B92368C8F80830D8F82B
:104B2000042013442360AB420BD1304602B0BDE8F1
:104B3000F0810C21404605F025FCF6E76FF05F069A
:104B4000F3E76FF06506F0E77F2A09D80368591A82
:104B5000002974DD591E016003F8012C0120704703
:104B6000FF2A0FD80368591A01296BDD591E01600D
:104B700003F8012C03685A1E0260812203F8012CFD
:104B800002207047B2F5803F15D20368591A0229F6
:104B90005BDD591E016003F8012C120A0368591EDF
:104BA000016003F8012C03685A1E0260822203F898
:104BB000012C0320704710B4B2F1807F1BD2036830
:104BC000591A032944DD591E016003F8012C110A0A
:104BD00003685C1E046003F8011C120C0368591E74
:104BE000016003F8012C03685A1E0260832203F857
:104BF000012C042020E00368591A04292BDD591EDA
:104C0000016003F8012C110A03685C1E046003F8BC
:104C1000011C110C03685C1E046003F8011C120ED9
:104C20000368591E016003F8012C03685A1E0260D4
:104C3000842203F8012C05205DF8044B70476FF0C7
:104C40006B0070476FF06B0070476FF06B00704740
:104C50006FF06B00F0E76FF06B00EDE70368591A37
:104C6000002905DD591E016003F8012C0120704761
:104C70006FF06B0070472DE9F04105460F469846EE
:104C8000002300E033462C68E01B002827DD5E1C73
:104C9000611E296004F8012C1212002AF2DC2A6835
:104CA00092F90010002908DAD11B00291BDD511EE2
:104CB0002960002102F8011C9E1C32463946284614
:104CC000FFF742FF00280CDB06445FFA88F2394602
:104CD0002846FFF7C3FF002803DB304401E06FF0F4
:104CE0006B00BDE8F0816FF06B00FAE770B5064627
:104CF0000D46006888420BD311461C46451B9D4259
:104D000009D3C01A30601A461CF07AF8204670BDEC
:104D10006FF06B00FBE76FF06B00F8E7F8B5054646
:104D20000E461746104600F0C2FB2968B1422FD349
:104D300004468A1B82422ED3091A2960024638464D
:104D400000F054FC0346B8B93B68012B04D12B6832
:104D500093F90020002A11DB224631462846FFF74E
:104D6000F3FE031E08DB1C44022231462846FFF7EF
:104D700075FF031E00DB23441846F8BD9A1B002A6A
:104D80000CDD5A1E2A60002203F8012C0134E3E7EF
:104D90006FF06B03F0E76FF06B03EDE76FF06B0301
:104DA000EAE770B504460D46FFF7A0FF002810DBC8
:104DB0000646024629462046FFF7C6FE002808DBC5
:104DC0000644062229462046FFF748FF002800DB5C
:104DD000304470BD08B50223FFF74DFF08BD70B524
:104DE00004460D46FFF782FF002810DB0646024608
:104DF00029462046FFF7A8FE002808DB06440422C7
:104E000029462046FFF72AFF002800DB304470BD0A
:104E1000F0B58E469446059F00210A460C461BE0DD
:104E2000BC422FD03E1B012E02D91E5D0D2E1ED07E
:104E30001E5D0A2E0FD0002D72D13D2E1CD016F013
:104E4000800F70D13C4DAD5D7F2D6FD03F2D01D8CF
:104E500000296ED101320134BC4213D20025BC427C
:104E6000DED21E5D202EDBD101340135F7E71E199D
:104E700076780A2EDCD1EEE701310229DFD96FF016
:104E80002B004CE0A2B1D50805EB450602F0070562
:104E900005EB450252000732D20802EB4602521AD5
:104EA00050B1724508D80146002703263D460BE065
:104EB0000020CCF8000032E0CCF800206FF0290090
:104EC0002DE00025013C01332CB31A780D2AF9D0CE
:104ED0000A2AF7D0202AF5D0DFF85CE01EF802207D
:104EE000402A08BF013E02F03F0242EA871701351F
:104EF000042DE7D11EB1C7F3074201F8012B012EA3
:104F000003D9C7F3072201F8012B022ED9D901F8E2
:104F1000017B0025D6E7091ACCF800100020F0BD6F
:104F20006FF02B00FBE76FF02B00F8E76FF02B0022
:104F3000F5E76FF02B00F2E7B08D021002464FF05C
:104F4000004300201F2804D8134202D15B0801301F
:104F5000F8E77047FF230360A2F13003DBB2092BAF
:104F600002D8A2F130030360A2F14103DBB2052BAA
:104F700002D8A2F137030360A2F16103DBB2052B73
:104F800001D8573A026003688B4201D20020704773
:104F90006FF005007047F0B400231D4685421CD217
:104FA0001768FC1A146051F8046BB4422CBF4FF020
:104FB000000C4FF0010C9F422CBF63460CF1010323
:104FC000A41B42F8044B0135E8E71168C81A42F8FF
:104FD000040B99422CBF00230123002BF5D1F0BC18
:104FE000704770B406460D4600240F2E40F2AB8089
:104FF00055F8040B1168E3FB601442F8041B55F8E4
:10500000040B1168E3FB601442F8041B55F8040B11
:105010001168E3FB601442F8041B55F8040B116897
:10502000E3FB601442F8041B55F8040B1168E3FB22
:10503000601442F8041B55F8040B1168E3FB60147C
:1050400042F8041B55F8040B1168E3FB601442F8A6
:10505000041B55F8040B1168E3FB601442F8041BB1
:1050600055F8040B1168E3FB601442F8041B55F873
:10507000040B1168E3FB601442F8041B55F8040BA1
:105080001168E3FB601442F8041B55F8040B116827
:10509000E3FB601442F8041B55F8040B1168E3FBB2
:1050A000601442F8041B55F8040B1168E3FB60140C
:1050B00042F8041B55F8040B1168E3FB601442F836
:1050C000041B55F8040B1168E3FB601442F8041B41
:1050D000103E8AE755F8040B1168E3FB601442F8B0
:1050E000041B55F8040B1168E3FB601442F8041B21
:1050F00055F8040B1168E3FB601442F8041B55F8E3
:10510000040B1168E3FB601442F8041B55F8040B10
:105110001168E3FB601442F8041B55F8040B116896
:10512000E3FB601442F8041B55F8040B1168E3FB21
:10513000601442F8041B55F8040B1168E3FB60147B
:1051400042F8041B083E072EC4D846B155F8040B9C
:105150001168E3FB601442F8041B013EF5E7136895
:10516000234442F8043B2146A3422CBF00240124DF
:105170008B42F4D370BC70472DE9F0411E46BAB1A2
:10518000044688461746824212D900230846214623
:1051900023F006F80446012908BF002801D34FF088
:1051A000FF3416B107FB148737602046BDE8F08155
:1051B00016B14FF0FF3333604FF0FF30F6E710B415
:1051C0008B681C68A31C5B0003F0080323442021A8
:1051D00006E004FB03F2C2F1020202FB03F34908FA
:1051E0000729F6D85B4203605DF8044B704708B5A9
:1051F000890005F0C7F808BD00BA7047A9B170B5BD
:10520000054601F18044013C00EB8404A5420BD823
:105210002868FFF7F1FF06462068FFF7EDFF45F825
:10522000040B44F80469F1E770BD70470123036083
:10523000002343608360704778B110B504468068EE
:1052400028B16168FFF7D3FFA0681BF095FA01232E
:10525000236000236360A36010BD7047F8B542F27D
:10526000107399421CD805460C4646688E4201D3FD
:105270000020F8BD042120461AF028FA074690B114
:10528000A96849B1B2001BF0BBFD6968A868FFF7C7
:10529000AEFFA8681BF070FA6C60AF600020E8E712
:1052A0006FF00F00E5E76FF00F00E2E7F8B5884216
:1052B0002CD006460D464B683BB1013B4BB1AA686A
:1052C00052F823202AB9013BF8E7FFF7B5FF002782
:1052D0001AE05C1C2B6833607268A24206D2214639
:1052E0003046FFF7BBFF074648B10DE0B068121B20
:1052F0009200002100EB84001BF088FE0027A20032
:10530000A968B0681BF07CFD3846F8BD0027FBE7B4
:10531000F8B588423ED005460C465642F6B23243B6
:10532000D6094968FFF79AFF864608B17046F8BD6E
:1053300069682046FFF792FF86460028F6D12A6862
:10534000C6F1010C236803FB06F302FB0C332B6050
:10535000236802FB06F203FB0C222260002315E007
:10536000A86850F82310A26852F8232006FB02F226
:1053700001FB0C2240F82320A76857F8232001FBEB
:1053800006F102FB0C1147F8231001336A689A42B8
:10539000E6D8CBE74FF0000EC8E770B504460D46DF
:1053A0000121FFF75BFF064608B1304670BD626819
:1053B00092000021A0681BF029FEA36885EAE5722F
:1053C000A2EBE5721A60002D02DB01232360ECE7FB
:1053D0004FF0FF33FAE74368B1EB431F0AD283680B
:1053E0004A0953F8220001F01F0120FA01F101F0EF
:1053F0000100704700207047012A24D8F8B50546FF
:1054000014464E0901F01F074368B1EB431F07D351
:105410000AB9002016E0711CFFF720FF08B111E067
:105420000020A968012303FA07F251F8263023EA85
:10543000020341F82630AB68BC4053F826201443E1
:1054400043F82640F8BD6FF00300704710B40146E2
:10545000002004464B68A3420ED900231F2B09D815
:105460008A6852F82420DA4012F0010F05D1013386
:105470000130F3E70134EDE700205DF8044B70479D
:105480000246406890B110B5441E2CB1936853F8A1
:1054900024300BB9013CF8E7936853F82400FFF778
:1054A0004DFDC0F1200000EB441010BD704708B561
:1054B000FFF7E6FF0730C00808BD2DE9F0410646BA
:1054C0008846174612F0030118BF012101EB920430
:1054D0004368A3420AD0FFF7AFFE3046FFF7A6FEAF
:1054E00021463046FFF7BAFE8446B8B9002130465F
:1054F000FFF753FF844688B900230DE0B16823F01D
:10550000030218F80340DD0005F0180504FA05F55C
:105510008C582C438C500133BB42EFD36046BDE81E
:10552000F0812DE9F84305460F46164612F00303B5
:1055300018BF012303EB9204C2EB84094368A34222
:105540000AD0FFF779FE2846FFF770FE214628466D
:10555000FFF784FE804680B900212846FFF71DFF33
:10556000804650B94FB1A8683246394648441BF0CE
:1055700047FC2146A868FFF741FE4046BDE8F88396
:10558000F8B50E4643689F00B2EB830F11D813465F
:10559000BB420CD2846823F00301645803F0030576
:1055A000ED00EC4014F0FF0F1DD10133F0E79446FD
:1055B00000E0BC46002309E0846823F0030164583E
:1055C00003F00305ED00EC40F45401339C45F3D89F
:1055D000974201D30020F8BDD21B0021F0191BF027
:1055E00015FD0020F7E76FF00700F4E7F8B5064671
:1055F000084673689F00B2EB830F0FD81346BB4277
:1056000013D2B46823F00301645803F00305ED00DE
:10561000EC4014F0FF0F1AD10133F0E7D21B8C18C5
:1056200000211BF0F3FC20463A4600230BE0B4684F
:1056300023F00301655803F00301C900CD40D41ADB
:10564000013C055501339A42F1D80020F8BD6FF0B6
:105650000700FBE7F8B505460F464C0901F01F06A9
:10566000FFF70EFF38446B68B0EB431F10D81F2FB5
:1056700024D96B68A3421FD9A9681A1B6FF0404058
:105680001F18024451F8222041F82720013BF1E77E
:1056900010F01F0118BF012101EB50112846FFF740
:1056A000DDFD0028E3D00BE0A96803F18042013A58
:1056B000002041F82200013B002BF5D1C6B90020A3
:1056C000F8BDA86850F82410C6F1200301FA06F2CC
:1056D00040F82420A86850F824203A4340F82420B9
:1056E000013421FA03F76968A142EAD80020E7E70C
:1056F0000027F8E7F8B54368B3EB511F25D34C09F1
:1057000001F01F07A3421ED01F2936D8002F38D022
:1057100042684FF0000C92B3866802F18043013B6F
:1057200056F82350C7F1200125FA07F446F8234024
:10573000866856F8234044EA0C0446F82340013AB0
:1057400005FA01FCE7E7002FDED00021FFF725FE78
:1057500016E08268191952F8211042F8231001331B
:105760004268121B9A42F4D842689A42CED98268A3
:10577000002142F823100133F6E70023F0E7002070
:10578000F8BD0020FCE730B4436843B1846803F1FE
:105790008042013A54F822200AB9013BF5E74A68F1
:1057A00042B18D6802F18044013C55F824400CB9A7
:1057B000013AF5E703B9C2B1934218D803D24FF0CA
:1057C000FF3015E0013B73B1846803F18042013A78
:1057D00054F822408D6855F8222094420AD8F1D21C
:1057E0004FF0FF3004E0002002E0002000E0012044
:1057F00030BC70470120FBE72DE9F04F83B09146A4
:1058000000930C9B5A68D9F8043001339A425AD35A
:1058100082468B460C9B9868002857D09200002146
:105820001BF0F4FB0C9B9C68D9F80480DBF8043077
:10583000434528BF43460193002620E0DAF80830AC
:1058400053F826702368DBF808100D6807FB053550
:10585000009B03FB05F53B4622460198FFF7C1FB81
:105860002B462246D9F808104046FFF7BAFB44F809
:10587000047B08F10103002244F823200136464549
:10588000DCD308F1010292002146DAF808001BF08F
:10589000B7FA49465046FFF776FF00280ADBDAF8E8
:1058A0000820D9F808104046FFF775FB002003B028
:1058B000BDE8F08F0C9B9A68DAF808104046FFF7B5
:1058C0006AFB0020F3E76FF00300F0E76FF00300DE
:1058D000EDE710B586B0012405940294039405AC5D
:1058E0000494009313460A4602A9FFF785FF06B009
:1058F00010BD70B40646436843B1B46803F18042FA
:10590000013A54F822200AB9013BF5E74A6842B14E
:105910008D6802F18044013C55F824400CB9013AED
:10592000F5E703B94AB393420FD8934210D33068D6
:10593000002802DD0A68002A21DB0A68002A0BDD44
:10594000002809DA4FF0FF3000E0306870BC704783
:1059500008684042FAE7013B6BB1B46803F180424A
:10596000013A54F822408D6855F822209442EDD82F
:10597000F1D24042EAE70020E8E70020E6E7012014
:10598000E4E700B585B081EAE173A3EBE17300932E
:1059900000290BDB0123019301230293CDF80CD0E6
:1059A00001A9FFF7A6FF05B05DF804FB4FF0FF3338
:1059B000F1E7F8B507461446904214D0B94205D035
:1059C0003846FFF773FC8446002843D101233B602F
:1059D00066685EB1A16806F18043013B51F823304F
:1059E00023B9013EF5E70C460146E7E73146384664
:1059F000FFF734FC844668BBA068BB6800242546DA
:105A00000EE050F8041B1A68A4182CBF01220022D3
:105A10000C4443F8044B8C422CBF1446541C0135F3
:105A2000B542EED308E01A68224443F8042BA242A0
:105A30002CBF00240124013564B17A68AA42F2D84F
:105A4000691C3846FFF70AFC844618B9BB6803EBAB
:105A50008503E8E76046F8BDF0B585B005460E461B
:105A6000144611463046FFF78EFE00282CDB01A8B5
:105A7000FFF7DCFBAC4214D0AE4205D031462846DD
:105A8000FFF714FC0746C8B901232B60606880B19A
:105A9000A26800F18043013B52F823304BB9013832
:105AA000F5E7214601A8FFF701FC074630B901AC34
:105AB000E2E7AA68A168FFF76EFA002701A8FFF7DE
:105AC000BBFB384605B0F0BD6FF00907F9E7F8B544
:105AD00006460C4615460F68136807FB03F3002BB8
:105AE00016DA11462046FFF74EFE002807DB2A464D
:105AF00021463046FFF7B0FF70B937600CE0224610
:105B000029463046FFF7A8FF30B97F42376003E0EF
:105B1000FFF74FFF00B93760F8BDF8B506460C46F1
:105B200015460F68136807FB03F3002B17DD1146BA
:105B30002046FFF728FE002807DB2A46214630468C
:105B4000FFF78AFF00B93760F8BD22462946304684
:105B5000FFF782FF0028F7D17F423760F4E7FFF7B5
:105B600028FF0028F0D13760EEE700B585B082EA63
:105B7000E273A3EBE2730093002A0BDB0123019392
:105B800001230293CDF80CD001AAFFF7A0FF05B0C6
:105B90005DF804FB4FF0FF33F1E700B585B082EA12
:105BA000E273A3EBE2730093002A0BDB0123019362
:105BB00001230293CDF80CD001AAFFF7AEFF05B088
:105BC0005DF804FB4FF0FF33F1E72DE9F04387B0B8
:105BD00080460E46174603A8FFF728FB6846FFF7E6
:105BE00025FBB0450CD0B84512D07568C5B1B26878
:105BF00005F18043013B52F823308BB9013DF5E7B5
:105C0000314603A8FFF752FB8146D0B903AEEAE75D
:105C100039466846FFF74AFB814690B96F46E4E78C
:105C20007C6844B1BA6804F18043013B52F82330E8
:105C30000BB9013CF5E729194046FFF70FFB8146F8
:105C400048B16846FFF7F8FA03A8FFF7F5FA4846A7
:105C500007B0BDE8F08300214046FFF79EFB814678
:105C60000028EED17CB1D8F8081004F18042013A46
:105C7000BB6853F8223001EB8202B1682846FFF777
:105C8000B0F9013CEEE732683B6803FB02F3C8F869
:105C90000030D6E700B585B0012301930293CDF81B
:105CA0000CD0009201AAFFF790FF05B05DF804FB4D
:105CB0002DE9F04784B08B1E0E2B00F29180064632
:105CC000894690468A466846FFF7B0FA40461CF07F
:105CD00057F80546B9F1100F47D1B0F1804F80F069
:105CE00082808300C0F3DA0113F01F0F14BF012379
:105CF000002319443046FFF7B1FA074630B1684631
:105D0000FFF79AFA384604B0BDE8F0870021304624
:105D1000FFF743FB07460028F1D1002417E0013DBF
:105D200018F80520494603A8FFF714F9074600288C
:105D3000E5D1B168E008A20002F01C02039B03FA5F
:105D400002F251F82030134341F820300134002D85
:105D5000D5D0012DE3D108EB050313F8013C2D2B21
:105D6000DDD14FF0FF333360C9E700213046FFF744
:105D700014FB07460028C2D100241CE018F80420B8
:105D8000494603A8FFF7E6F807460028B7D1524670
:105D900031466846FFF77EFF07460028AFD13368DB
:105DA000012B14D0039A69463046FFF7F6FE0746EA
:105DB0000028A4D10134AC42A1D2002CDED118F8C5
:105DC00004302D2BDAD14FF0FF333360F2E7039A22
:105DD00069463046FFF7C9FE07460028EAD08EE73D
:105DE0006FF003078EE76FF003078BE72DE9F04FA5
:105DF00099B006460F4615461C4600211846FFF787
:105E0000C0FD002800F0A88115A8FFF70FFA12A81E
:105E1000FFF70CFA0FA8FFF709FA0CA8FFF706FA2C
:105E20000123099303230A9306AB0B9321462846CB
:105E3000FFF7A9FC002810DA2EB100213046FFF749
:105E4000ACFA804678B92FB129463846FFF72EFACA
:105E5000804640B94FF0000815E0294615A8FFF725
:105E600025FA804698B115A8FFF7E6F912A8FFF7C2
:105E7000E3F90FA8FFF7E0F90CA8FFF7DDF90C2113
:105E800006A804F07FFA404619B0BDE8F08F21461D
:105E900012A8FFF70BFA80460028E4D101231293E1
:105EA0001593696802310FA8FFF7D8F980460028DA
:105EB000D9D100210FA8FFF770FA80460028D2D16F
:105EC00002210CA8FFF7CAF980460028CBD112A8FE
:105ED000FFF7D6FA00F01F031E2B11D8C3F11F03E2
:105EE00001939946194615A8FFF7B4FB8046002890
:105EF000B9D1494612A8FFF7ADFB804610B1B2E711
:105F000000230193169B5A1E0392139A029202F1E8
:105F1000FF3BA3EB02094FEA491A514612A8FFF7CB
:105F200099FB804600289ED112A915A8FFF7E1FC35
:105F300000280EDB119A52F82930013342F829303B
:105F400012AA15A90846FFF7E8FD80460028EBD005
:105F500089E7514612A8FFF7CDFB8046002882D181
:105F6000DDF808A002960497039F03955D4605940B
:105F7000AF4240F2C0801799BC0051F82700AE0034
:105F8000149B53F8252090422ED37B1B03F18043B2
:105F9000013B119A4FF0FF3142F82310012F33D902
:105FA00007F18043023B179A52F823200B9B1A609B
:105FB00067B307F18043013B179A52F823200B9BEC
:105FC0005A60179B1A590B9B9A60119AA7EB050B05
:105FD0000BF1804909F1FF394FEA890452F8293061
:105FE000013342F829302AE06FF0404807EB080CF3
:105FF000DDF844907B1B9844002351F82C10FFF7E8
:10600000BBF849F82800C9E70022CFE73A46D6E7AF
:106010002A460E9B1A60149B9A590E9B5A60119B3C
:106020001A590CA90846FFF735FE804600287FF470
:106030001AAF09A90CA8FFF75CFC002814DD119A1F
:106040001359013B135100210CA8FFF7A6F9804614
:1060500000287FF408AF002DDAD00AF18043023B1C
:10606000149A52F82320D4E7119B53F8292012A93F
:106070000CA8FFF70FFE804600287FF4F4AE0BF16A
:10608000FF34640121460CA8FFF7E4FA804600289B
:106090007FF4E9AE0CAA15A90846FFF73EFD80463D
:1060A00000287FF4E0AE002115A8FFF76AFC002865
:1060B00001DB013F5CE712A90CA8FFF7F7F8804667
:1060C00000287FF4D0AE21460CA8FFF7C3FA804623
:1060D00000287FF4C8AE0CAA15A90846FFF7F7FC04
